{
  "_format": "hh-sol-artifact-1",
  "contractName": "Escrow",
  "sourceName": "contracts/Escrow.sol",
  "abi": [
    {
      "inputs": [
        {
          "internalType": "uint256",
          "name": "orderId",
          "type": "uint256"
        }
      ],
      "name": "confirmReceipt",
      "outputs": [],
      "stateMutability": "nonpayable",
      "type": "function"
    },
    {
      "inputs": [
        {
          "internalType": "uint256",
          "name": "orderId",
          "type": "uint256"
        },
        {
          "internalType": "address",
          "name": "farmer",
          "type": "address"
        }
      ],
      "name": "createOrder",
      "outputs": [],
      "stateMutability": "nonpayable",
      "type": "function"
    },
    {
      "inputs": [
        {
          "internalType": "uint256",
          "name": "orderId",
          "type": "uint256"
        }
      ],
      "name": "deposit",
      "outputs": [],
      "stateMutability": "payable",
      "type": "function"
    },
    {
      "inputs": [
        {
          "internalType": "uint256",
          "name": "orderId",
          "type": "uint256"
        }
      ],
      "name": "getOrderBalance",
      "outputs": [
        {
          "internalType": "uint256",
          "name": "",
          "type": "uint256"
        }
      ],
      "stateMutability": "view",
      "type": "function"
    },
    {
      "inputs": [
        {
          "internalType": "uint256",
          "name": "",
          "type": "uint256"
        }
      ],
      "name": "orders",
      "outputs": [
        {
          "internalType": "address",
          "name": "consumer",
          "type": "address"
        },
        {
          "internalType": "address",
          "name": "farmer",
          "type": "address"
        },
        {
          "internalType": "uint256",
          "name": "amount",
          "type": "uint256"
        },
        {
          "internalType": "bool",
          "name": "productReceived",
          "type": "bool"
        },
        {
          "internalType": "bool",
          "name": "deposited",
          "type": "bool"
        }
      ],
      "stateMutability": "view",
      "type": "function"
    }
  ],
  "bytecode": "0x608060405234801561001057600080fd5b50610a4e806100206000396000f3fe60806040526004361061004a5760003560e01c806307540ca61461004f57806362951cec14610078578063843cba13146100b5578063a85c38ef146100de578063b6b55f251461011f575b600080fd5b34801561005b57600080fd5b50610076600480360381019061007191906106d7565b61013b565b005b34801561008457600080fd5b5061009f600480360381019061009a9190610717565b610286565b6040516100ac9190610753565b60405180910390f35b3480156100c157600080fd5b506100dc60048036038101906100d79190610717565b6102a5565b005b3480156100ea57600080fd5b5061010560048036038101906101009190610717565b61048a565b604051610116959493929190610798565b60405180910390f35b61013960048036038101906101349190610717565b61051a565b005b6040518060a001604052803373ffffffffffffffffffffffffffffffffffffffff1681526020018273ffffffffffffffffffffffffffffffffffffffff168152602001600081526020016000151581526020016000151581525060008084815260200190815260200160002060008201518160000160006101000a81548173ffffffffffffffffffffffffffffffffffffffff021916908373ffffffffffffffffffffffffffffffffffffffff16021790555060208201518160010160006101000a81548173ffffffffffffffffffffffffffffffffffffffff021916908373ffffffffffffffffffffffffffffffffffffffff1602179055506040820151816002015560608201518160030160006101000a81548160ff02191690831515021790555060808201518160030160016101000a81548160ff0219169083151502179055509050505050565b6000806000838152602001908152602001600020600201549050919050565b600080600083815260200190815260200160002090508060000160009054906101000a900473ffffffffffffffffffffffffffffffffffffffff1673ffffffffffffffffffffffffffffffffffffffff163373ffffffffffffffffffffffffffffffffffffffff161461034d576040517f08c379a000000000000000000000000000000000000000000000000000000000815260040161034490610848565b60405180910390fd5b8060030160019054906101000a900460ff1661039e576040517f08c379a0000000000000000000000000000000000000000000000000000000008152600401610395906108b4565b60405180910390fd5b8060030160009054906101000a900460ff16156103f0576040517f08c379a00000000000000000000000000000000000000000000000000000000081526004016103e790610920565b60405180910390fd5b60018160030160006101000a81548160ff0219169083151502179055508060010160009054906101000a900473ffffffffffffffffffffffffffffffffffffffff1673ffffffffffffffffffffffffffffffffffffffff166108fc82600201549081150290604051600060405180830381858888f1935050505015801561047b573d6000803e3d6000fd5b50600081600201819055505050565b60006020528060005260406000206000915090508060000160009054906101000a900473ffffffffffffffffffffffffffffffffffffffff16908060010160009054906101000a900473ffffffffffffffffffffffffffffffffffffffff16908060020154908060030160009054906101000a900460ff16908060030160019054906101000a900460ff16905085565b600080600083815260200190815260200160002090508060000160009054906101000a900473ffffffffffffffffffffffffffffffffffffffff1673ffffffffffffffffffffffffffffffffffffffff163373ffffffffffffffffffffffffffffffffffffffff16146105c2576040517f08c379a00000000000000000000000000000000000000000000000000000000081526004016105b99061098c565b60405180910390fd5b8060030160019054906101000a900460ff1615610614576040517f08c379a000000000000000000000000000000000000000000000000000000000815260040161060b906109f8565b60405180910390fd5b34816002018190555060018160030160016101000a81548160ff0219169083151502179055505050565b600080fd5b6000819050919050565b61065681610643565b811461066157600080fd5b50565b6000813590506106738161064d565b92915050565b600073ffffffffffffffffffffffffffffffffffffffff82169050919050565b60006106a482610679565b9050919050565b6106b481610699565b81146106bf57600080fd5b50565b6000813590506106d1816106ab565b92915050565b600080604083850312156106ee576106ed61063e565b5b60006106fc85828601610664565b925050602061070d858286016106c2565b9150509250929050565b60006020828403121561072d5761072c61063e565b5b600061073b84828501610664565b91505092915050565b61074d81610643565b82525050565b60006020820190506107686000830184610744565b92915050565b61077781610699565b82525050565b60008115159050919050565b6107928161077d565b82525050565b600060a0820190506107ad600083018861076e565b6107ba602083018761076e565b6107c76040830186610744565b6107d46060830185610789565b6107e16080830184610789565b9695505050505050565b600082825260208201905092915050565b7f4f6e6c7920636f6e73756d65722063616e20636f6e6669726d00000000000000600082015250565b60006108326019836107eb565b915061083d826107fc565b602082019050919050565b6000602082019050818103600083015261086181610825565b9050919050565b7f4e6f2066756e6473206465706f73697465640000000000000000000000000000600082015250565b600061089e6012836107eb565b91506108a982610868565b602082019050919050565b600060208201905081810360008301526108cd81610891565b9050919050565b7f416c726561647920636f6e6669726d6564000000000000000000000000000000600082015250565b600061090a6011836107eb565b9150610915826108d4565b602082019050919050565b60006020820190508181036000830152610939816108fd565b9050919050565b7f4f6e6c7920636f6e73756d65722063616e206465706f73697400000000000000600082015250565b60006109766019836107eb565b915061098182610940565b602082019050919050565b600060208201905081810360008301526109a581610969565b9050919050565b7f416c7265616479206465706f7369746564000000000000000000000000000000600082015250565b60006109e26011836107eb565b91506109ed826109ac565b602082019050919050565b60006020820190508181036000830152610a11816109d5565b905091905056fea26469706673582212204f863ff324082bc3e074ef2a60e11fb4cb3da721d277f7f335442e0cb451d58264736f6c63430008140033",
  "linkReferences": {},
  "deployedLinkReferences": {}
}