{
  "_format": "hh-sol-artifact-1",
  "contractName": "SupplyChainV2",
  "sourceName": "contracts/SupplyChainV2.sol",
  "abi": [
    {
      "inputs": [],
      "stateMutability": "nonpayable",
      "type": "constructor"
    },
    {
      "anonymous": false,
      "inputs": [
        {
          "indexed": true,
          "internalType": "bytes32",
          "name": "orderId",
          "type": "bytes32"
        },
        {
          "indexed": true,
          "internalType": "address",
          "name": "buyer",
          "type": "address"
        }
      ],
      "name": "OrderCancelled",
      "type": "event"
    },
    {
      "anonymous": false,
      "inputs": [
        {
          "indexed": true,
          "internalType": "bytes32",
          "name": "orderId",
          "type": "bytes32"
        },
        {
          "indexed": true,
          "internalType": "bytes32",
          "name": "productId",
          "type": "bytes32"
        },
        {
          "indexed": true,
          "internalType": "address",
          "name": "buyer",
          "type": "address"
        },
        {
          "indexed": false,
          "internalType": "address",
          "name": "seller",
          "type": "address"
        },
        {
          "indexed": false,
          "internalType": "uint256",
          "name": "totalPrice",
          "type": "uint256"
        }
      ],
      "name": "OrderCreated",
      "type": "event"
    },
    {
      "anonymous": false,
      "inputs": [
        {
          "indexed": true,
          "internalType": "bytes32",
          "name": "orderId",
          "type": "bytes32"
        },
        {
          "indexed": true,
          "internalType": "address",
          "name": "buyer",
          "type": "address"
        },
        {
          "indexed": false,
          "internalType": "address",
          "name": "seller",
          "type": "address"
        }
      ],
      "name": "OrderDelivered",
      "type": "event"
    },
    {
      "anonymous": false,
      "inputs": [
        {
          "indexed": true,
          "internalType": "bytes32",
          "name": "orderId",
          "type": "bytes32"
        },
        {
          "indexed": true,
          "internalType": "address",
          "name": "seller",
          "type": "address"
        }
      ],
      "name": "OrderShipped",
      "type": "event"
    },
    {
      "anonymous": false,
      "inputs": [
        {
          "indexed": true,
          "internalType": "bytes32",
          "name": "productId",
          "type": "bytes32"
        },
        {
          "indexed": true,
          "internalType": "address",
          "name": "oldOwner",
          "type": "address"
        },
        {
          "indexed": true,
          "internalType": "address",
          "name": "newOwner",
          "type": "address"
        }
      ],
      "name": "OwnershipTransferred",
      "type": "event"
    },
    {
      "anonymous": false,
      "inputs": [
        {
          "indexed": true,
          "internalType": "bytes32",
          "name": "orderId",
          "type": "bytes32"
        },
        {
          "indexed": true,
          "internalType": "address",
          "name": "buyer",
          "type": "address"
        },
        {
          "indexed": false,
          "internalType": "uint256",
          "name": "amount",
          "type": "uint256"
        }
      ],
      "name": "PaymentReceived",
      "type": "event"
    },
    {
      "anonymous": false,
      "inputs": [
        {
          "indexed": true,
          "internalType": "bytes32",
          "name": "productId",
          "type": "bytes32"
        },
        {
          "indexed": true,
          "internalType": "address",
          "name": "origin",
          "type": "address"
        },
        {
          "indexed": false,
          "internalType": "string",
          "name": "name",
          "type": "string"
        }
      ],
      "name": "ProductCreated",
      "type": "event"
    },
    {
      "anonymous": false,
      "inputs": [
        {
          "indexed": true,
          "internalType": "bytes32",
          "name": "orderId",
          "type": "bytes32"
        },
        {
          "indexed": true,
          "internalType": "address",
          "name": "buyer",
          "type": "address"
        },
        {
          "indexed": false,
          "internalType": "uint256",
          "name": "amount",
          "type": "uint256"
        }
      ],
      "name": "RefundProcessed",
      "type": "event"
    },
    {
      "anonymous": false,
      "inputs": [
        {
          "indexed": true,
          "internalType": "bytes32",
          "name": "productId",
          "type": "bytes32"
        },
        {
          "indexed": true,
          "internalType": "address",
          "name": "actor",
          "type": "address"
        },
        {
          "indexed": false,
          "internalType": "uint256",
          "name": "timestamp",
          "type": "uint256"
        }
      ],
      "name": "TraceAdded",
      "type": "event"
    },
    {
      "inputs": [
        {
          "internalType": "bytes32",
          "name": "productId",
          "type": "bytes32"
        },
        {
          "internalType": "uint256",
          "name": "quantity",
          "type": "uint256"
        },
        {
          "internalType": "uint256",
          "name": "pricePerUnit",
          "type": "uint256"
        },
        {
          "internalType": "string",
          "name": "quality",
          "type": "string"
        },
        {
          "internalType": "string",
          "name": "metaUri",
          "type": "string"
        }
      ],
      "name": "addTrace",
      "outputs": [],
      "stateMutability": "nonpayable",
      "type": "function"
    },
    {
      "inputs": [
        {
          "internalType": "bytes32",
          "name": "orderId",
          "type": "bytes32"
        }
      ],
      "name": "cancelOrder",
      "outputs": [],
      "stateMutability": "nonpayable",
      "type": "function"
    },
    {
      "inputs": [
        {
          "internalType": "bytes32",
          "name": "orderId",
          "type": "bytes32"
        }
      ],
      "name": "confirmOrder",
      "outputs": [],
      "stateMutability": "nonpayable",
      "type": "function"
    },
    {
      "inputs": [
        {
          "internalType": "bytes32",
          "name": "orderId",
          "type": "bytes32"
        },
        {
          "internalType": "bytes32",
          "name": "productId",
          "type": "bytes32"
        },
        {
          "internalType": "address",
          "name": "seller",
          "type": "address"
        },
        {
          "internalType": "uint256",
          "name": "quantity",
          "type": "uint256"
        },
        {
          "internalType": "uint256",
          "name": "totalPrice",
          "type": "uint256"
        }
      ],
      "name": "createOrder",
      "outputs": [],
      "stateMutability": "nonpayable",
      "type": "function"
    },
    {
      "inputs": [
        {
          "internalType": "bytes32",
          "name": "productId",
          "type": "bytes32"
        },
        {
          "internalType": "string",
          "name": "name",
          "type": "string"
        },
        {
          "internalType": "string",
          "name": "category",
          "type": "string"
        },
        {
          "internalType": "uint256",
          "name": "initialQuantity",
          "type": "uint256"
        },
        {
          "internalType": "uint256",
          "name": "pricePerUnit",
          "type": "uint256"
        },
        {
          "internalType": "string",
          "name": "quality",
          "type": "string"
        },
        {
          "internalType": "string",
          "name": "metaUri",
          "type": "string"
        }
      ],
      "name": "createProduct",
      "outputs": [],
      "stateMutability": "nonpayable",
      "type": "function"
    },
    {
      "inputs": [
        {
          "internalType": "bytes32",
          "name": "orderId",
          "type": "bytes32"
        }
      ],
      "name": "deliverOrder",
      "outputs": [],
      "stateMutability": "nonpayable",
      "type": "function"
    },
    {
      "inputs": [
        {
          "internalType": "bytes32",
          "name": "productId",
          "type": "bytes32"
        }
      ],
      "name": "getAllTraces",
      "outputs": [
        {
          "components": [
            {
              "internalType": "address",
              "name": "actor",
              "type": "address"
            },
            {
              "internalType": "uint256",
              "name": "timestamp",
              "type": "uint256"
            },
            {
              "internalType": "uint256",
              "name": "quantity",
              "type": "uint256"
            },
            {
              "internalType": "uint256",
              "name": "pricePerUnit",
              "type": "uint256"
            },
            {
              "internalType": "string",
              "name": "quality",
              "type": "string"
            },
            {
              "internalType": "string",
              "name": "metaUri",
              "type": "string"
            }
          ],
          "internalType": "struct SupplyChainV2.Trace[]",
          "name": "",
          "type": "tuple[]"
        }
      ],
      "stateMutability": "view",
      "type": "function"
    },
    {
      "inputs": [],
      "name": "getContractBalance",
      "outputs": [
        {
          "internalType": "uint256",
          "name": "",
          "type": "uint256"
        }
      ],
      "stateMutability": "view",
      "type": "function"
    },
    {
      "inputs": [
        {
          "internalType": "bytes32",
          "name": "orderId",
          "type": "bytes32"
        }
      ],
      "name": "getOrder",
      "outputs": [
        {
          "internalType": "bytes32",
          "name": "productId",
          "type": "bytes32"
        },
        {
          "internalType": "address",
          "name": "buyer",
          "type": "address"
        },
        {
          "internalType": "address",
          "name": "seller",
          "type": "address"
        },
        {
          "internalType": "uint256",
          "name": "quantity",
          "type": "uint256"
        },
        {
          "internalType": "uint256",
          "name": "totalPrice",
          "type": "uint256"
        },
        {
          "internalType": "uint256",
          "name": "escrowAmount",
          "type": "uint256"
        },
        {
          "internalType": "enum SupplyChainV2.OrderStatus",
          "name": "status",
          "type": "uint8"
        },
        {
          "internalType": "uint256",
          "name": "createdAt",
          "type": "uint256"
        },
        {
          "internalType": "uint256",
          "name": "deliveredAt",
          "type": "uint256"
        }
      ],
      "stateMutability": "view",
      "type": "function"
    },
    {
      "inputs": [
        {
          "internalType": "bytes32",
          "name": "orderId",
          "type": "bytes32"
        }
      ],
      "name": "getPaymentStatus",
      "outputs": [
        {
          "internalType": "enum SupplyChainV2.OrderStatus",
          "name": "status",
          "type": "uint8"
        },
        {
          "internalType": "uint256",
          "name": "escrowAmount",
          "type": "uint256"
        },
        {
          "internalType": "bool",
          "name": "isPaid",
          "type": "bool"
        },
        {
          "internalType": "bool",
          "name": "isDelivered",
          "type": "bool"
        }
      ],
      "stateMutability": "view",
      "type": "function"
    },
    {
      "inputs": [
        {
          "internalType": "bytes32",
          "name": "productId",
          "type": "bytes32"
        }
      ],
      "name": "getProduct",
      "outputs": [
        {
          "internalType": "address",
          "name": "currentOwner",
          "type": "address"
        },
        {
          "internalType": "address",
          "name": "origin",
          "type": "address"
        },
        {
          "internalType": "string",
          "name": "name",
          "type": "string"
        },
        {
          "internalType": "string",
          "name": "category",
          "type": "string"
        },
        {
          "internalType": "uint256",
          "name": "createdAt",
          "type": "uint256"
        },
        {
          "internalType": "uint256",
          "name": "traceCount",
          "type": "uint256"
        }
      ],
      "stateMutability": "view",
      "type": "function"
    },
    {
      "inputs": [
        {
          "internalType": "bytes32",
          "name": "productId",
          "type": "bytes32"
        },
        {
          "internalType": "uint256",
          "name": "index",
          "type": "uint256"
        }
      ],
      "name": "getTrace",
      "outputs": [
        {
          "internalType": "address",
          "name": "actor",
          "type": "address"
        },
        {
          "internalType": "uint256",
          "name": "timestamp",
          "type": "uint256"
        },
        {
          "internalType": "uint256",
          "name": "quantity",
          "type": "uint256"
        },
        {
          "internalType": "uint256",
          "name": "pricePerUnit",
          "type": "uint256"
        },
        {
          "internalType": "string",
          "name": "quality",
          "type": "string"
        },
        {
          "internalType": "string",
          "name": "metaUri",
          "type": "string"
        }
      ],
      "stateMutability": "view",
      "type": "function"
    },
    {
      "inputs": [
        {
          "internalType": "bytes32",
          "name": "orderId",
          "type": "bytes32"
        }
      ],
      "name": "payForOrder",
      "outputs": [],
      "stateMutability": "payable",
      "type": "function"
    },
    {
      "inputs": [
        {
          "internalType": "bytes32",
          "name": "orderId",
          "type": "bytes32"
        }
      ],
      "name": "shipOrder",
      "outputs": [],
      "stateMutability": "nonpayable",
      "type": "function"
    },
    {
      "inputs": [
        {
          "internalType": "bytes32",
          "name": "productId",
          "type": "bytes32"
        },
        {
          "internalType": "address",
          "name": "newOwner",
          "type": "address"
        },
        {
          "internalType": "uint256",
          "name": "quantity",
          "type": "uint256"
        },
        {
          "internalType": "uint256",
          "name": "pricePerUnit",
          "type": "uint256"
        },
        {
          "internalType": "string",
          "name": "quality",
          "type": "string"
        },
        {
          "internalType": "string",
          "name": "metaUri",
          "type": "string"
        }
      ],
      "name": "transferOwnership",
      "outputs": [],
      "stateMutability": "nonpayable",
      "type": "function"
    }
  ],
  "bytecode": "0x608060405234801561001057600080fd5b506141a4806100206000396000f3fe6080604052600436106100e85760003560e01c80636f9fb98a1161008a578063ad57226711610059578063ad572267146102f3578063d99b726e1461031c578063ddc1252814610345578063f0013c0314610382576100e8565b80636f9fb98a1461024d5780637489ec23146102785780637ebaf775146102a15780638571e956146102ca576100e8565b80633a20e9df116100c65780633a20e9df1461017457806350d18b70146101b65780635778472a146101df5780636e6f1cb614610224576100e8565b806317e2f34a146100ed5780631f84dae31461012f57806325f85cc01461014b575b600080fd5b3480156100f957600080fd5b50610114600480360381019061010f9190612b07565b6103c2565b60405161012696959493929190612c27565b60405180910390f35b61014960048036038101906101449190612c96565b610622565b005b34801561015757600080fd5b50610172600480360381019061016d9190612d28565b610921565b005b34801561018057600080fd5b5061019b60048036038101906101969190612c96565b610c17565b6040516101ad96959493929190612de4565b60405180910390f35b3480156101c257600080fd5b506101dd60048036038101906101d89190612c96565b610e27565b005b3480156101eb57600080fd5b5061020660048036038101906102019190612c96565b61105b565b60405161021b99989796959493929190612ed9565b60405180910390f35b34801561023057600080fd5b5061024b60048036038101906102469190612f92565b611215565b005b34801561025957600080fd5b506102626115b0565b60405161026f9190613061565b60405180910390f35b34801561028457600080fd5b5061029f600480360381019061029a9190612c96565b6115b8565b005b3480156102ad57600080fd5b506102c860048036038101906102c39190612c96565b611a05565b005b3480156102d657600080fd5b506102f160048036038101906102ec9190612c96565b611caa565b005b3480156102ff57600080fd5b5061031a6004803603810190610315919061307c565b612024565b005b34801561032857600080fd5b50610343600480360381019061033e91906131a0565b6123b0565b005b34801561035157600080fd5b5061036c60048036038101906103679190612c96565b61266f565b60405161037991906133d5565b60405180910390f35b34801561038e57600080fd5b506103a960048036038101906103a49190612c96565b6128df565b6040516103b99493929190613412565b60405180910390f35b6000806000806060808760008082815260200190815260200160002060060160009054906101000a900460ff1661042e576040517f08c379a0000000000000000000000000000000000000000000000000000000008152600401610425906134a3565b60405180910390fd5b60008060008b815260200190815260200160002090508060050180549050891061048d576040517f08c379a00000000000000000000000000000000000000000000000000000000081526004016104849061350f565b60405180910390fd5b6000816005018a815481106104a5576104a461352f565b5b906000526020600020906006020190508060000160009054906101000a900473ffffffffffffffffffffffffffffffffffffffff1681600101548260020154836003015484600401856005018180546104fd9061358d565b80601f01602080910402602001604051908101604052809291908181526020018280546105299061358d565b80156105765780601f1061054b57610100808354040283529160200191610576565b820191906000526020600020905b81548152906001019060200180831161055957829003601f168201915b505050505091508080546105899061358d565b80601f01602080910402602001604051908101604052809291908181526020018280546105b59061358d565b80156106025780601f106105d757610100808354040283529160200191610602565b820191906000526020600020905b8154815290600101906020018083116105e557829003601f168201915b505050505090509850985098509850985098505050509295509295509295565b806000600581111561063757610636612e62565b5b6001600083815260200190815260200160002060060160009054906101000a900460ff16600581111561066d5761066c612e62565b5b1415806106dd5750600073ffffffffffffffffffffffffffffffffffffffff166001600083815260200190815260200160002060010160009054906101000a900473ffffffffffffffffffffffffffffffffffffffff1673ffffffffffffffffffffffffffffffffffffffff1614155b61071c576040517f08c379a00000000000000000000000000000000000000000000000000000000081526004016107139061360a565b60405180910390fd5b816001600082815260200190815260200160002060010160009054906101000a900473ffffffffffffffffffffffffffffffffffffffff1673ffffffffffffffffffffffffffffffffffffffff163373ffffffffffffffffffffffffffffffffffffffff16146107c1576040517f08c379a00000000000000000000000000000000000000000000000000000000081526004016107b89061369c565b60405180910390fd5b6000600160008581526020019081526020016000209050600060058111156107ec576107eb612e62565b5b8160060160009054906101000a900460ff1660058111156108105761080f612e62565b5b14610850576040517f08c379a00000000000000000000000000000000000000000000000000000000081526004016108479061372e565b60405180910390fd5b80600401543414610896576040517f08c379a000000000000000000000000000000000000000000000000000000000815260040161088d906137c0565b60405180910390fd5b60018160060160006101000a81548160ff021916908360058111156108be576108bd612e62565b5b02179055503481600501819055503373ffffffffffffffffffffffffffffffffffffffff16847f3b5907c9aaeaeef015f385111975b015225e1001bf659370e62c15e13373bc6d346040516109139190613061565b60405180910390a350505050565b8660008082815260200190815260200160002060060160009054906101000a900460ff16610984576040517f08c379a000000000000000000000000000000000000000000000000000000000815260040161097b906134a3565b60405180910390fd5b60008060008a815260200190815260200160002090508060000160009054906101000a900473ffffffffffffffffffffffffffffffffffffffff1673ffffffffffffffffffffffffffffffffffffffff163373ffffffffffffffffffffffffffffffffffffffff1614610a2c576040517f08c379a0000000000000000000000000000000000000000000000000000000008152600401610a239061382c565b60405180910390fd5b60006040518060c001604052803373ffffffffffffffffffffffffffffffffffffffff1681526020014281526020018a815260200189815260200188888080601f016020809104026020016040519081016040528093929190818152602001838380828437600081840152601f19601f82011690508083019250505050505050815260200186868080601f016020809104026020016040519081016040528093929190818152602001838380828437600081840152601f19601f8201169050808301925050505050505081525090508160050181908060018154018082558091505060019003906000526020600020906006020160009091909190915060008201518160000160006101000a81548173ffffffffffffffffffffffffffffffffffffffff021916908373ffffffffffffffffffffffffffffffffffffffff1602179055506020820151816001015560408201518160020155606082015181600301556080820151816004019081610ba39190613a27565b5060a0820151816005019081610bb99190613a27565b5050503373ffffffffffffffffffffffffffffffffffffffff168a7ff898f1c7fd3545adf80b84c67f30f91b77b575134aedf8ae4999d4d10747394342604051610c039190613061565b60405180910390a350505050505050505050565b6000806060806000808660008082815260200190815260200160002060060160009054906101000a900460ff16610c83576040517f08c379a0000000000000000000000000000000000000000000000000000000008152600401610c7a906134a3565b60405180910390fd5b60008060008a815260200190815260200160002090508060000160009054906101000a900473ffffffffffffffffffffffffffffffffffffffff168160010160009054906101000a900473ffffffffffffffffffffffffffffffffffffffff16826002018360030184600401548560050180549050838054610d049061358d565b80601f0160208091040260200160405190810160405280929190818152602001828054610d309061358d565b8015610d7d5780601f10610d5257610100808354040283529160200191610d7d565b820191906000526020600020905b815481529060010190602001808311610d6057829003601f168201915b50505050509350828054610d909061358d565b80601f0160208091040260200160405190810160405280929190818152602001828054610dbc9061358d565b8015610e095780601f10610dde57610100808354040283529160200191610e09565b820191906000526020600020905b815481529060010190602001808311610dec57829003601f168201915b50505050509250975097509750975097509750505091939550919395565b8060006005811115610e3c57610e3b612e62565b5b6001600083815260200190815260200160002060060160009054906101000a900460ff166005811115610e7257610e71612e62565b5b141580610ee25750600073ffffffffffffffffffffffffffffffffffffffff166001600083815260200190815260200160002060010160009054906101000a900473ffffffffffffffffffffffffffffffffffffffff1673ffffffffffffffffffffffffffffffffffffffff1614155b610f21576040517f08c379a0000000000000000000000000000000000000000000000000000000008152600401610f189061360a565b60405180910390fd5b816001600082815260200190815260200160002060020160009054906101000a900473ffffffffffffffffffffffffffffffffffffffff1673ffffffffffffffffffffffffffffffffffffffff163373ffffffffffffffffffffffffffffffffffffffff1614610fc6576040517f08c379a0000000000000000000000000000000000000000000000000000000008152600401610fbd90613b6b565b60405180910390fd5b600060016000858152602001908152602001600020905060016005811115610ff157610ff0612e62565b5b8160060160009054906101000a900460ff16600581111561101557611014612e62565b5b14611055576040517f08c379a000000000000000000000000000000000000000000000000000000000815260040161104c90613bfd565b60405180910390fd5b50505050565b6000806000806000806000806000896000600581111561107e5761107d612e62565b5b6001600083815260200190815260200160002060060160009054906101000a900460ff1660058111156110b4576110b3612e62565b5b1415806111245750600073ffffffffffffffffffffffffffffffffffffffff166001600083815260200190815260200160002060010160009054906101000a900473ffffffffffffffffffffffffffffffffffffffff1673ffffffffffffffffffffffffffffffffffffffff1614155b611163576040517f08c379a000000000000000000000000000000000000000000000000000000000815260040161115a9061360a565b60405180910390fd5b6000600160008d8152602001908152602001600020905080600001548160010160009054906101000a900473ffffffffffffffffffffffffffffffffffffffff168260020160009054906101000a900473ffffffffffffffffffffffffffffffffffffffff168360030154846004015485600501548660060160009054906101000a900460ff16876007015488600801549a509a509a509a509a509a509a509a509a5050509193959799909294969850565b8760008082815260200190815260200160002060060160009054906101000a900460ff16611278576040517f08c379a000000000000000000000000000000000000000000000000000000000815260040161126f906134a3565b60405180910390fd5b60008060008b8152602001908152602001600020905060008160000160009054906101000a900473ffffffffffffffffffffffffffffffffffffffff1690508073ffffffffffffffffffffffffffffffffffffffff163373ffffffffffffffffffffffffffffffffffffffff1614611325576040517f08c379a000000000000000000000000000000000000000000000000000000000815260040161131c90613c69565b60405180910390fd5b898260000160006101000a81548173ffffffffffffffffffffffffffffffffffffffff021916908373ffffffffffffffffffffffffffffffffffffffff16021790555060006040518060c001604052803373ffffffffffffffffffffffffffffffffffffffff1681526020014281526020018b81526020018a815260200189898080601f016020809104026020016040519081016040528093929190818152602001838380828437600081840152601f19601f82011690508083019250505050505050815260200187878080601f016020809104026020016040519081016040528093929190818152602001838380828437600081840152601f19601f8201169050808301925050505050505081525090508260050181908060018154018082558091505060019003906000526020600020906006020160009091909190915060008201518160000160006101000a81548173ffffffffffffffffffffffffffffffffffffffff021916908373ffffffffffffffffffffffffffffffffffffffff16021790555060208201518160010155604082015181600201556060820151816003015560808201518160040190816114df9190613a27565b5060a08201518160050190816114f59190613a27565b5050508a73ffffffffffffffffffffffffffffffffffffffff168273ffffffffffffffffffffffffffffffffffffffff168d7f0b659dccc8eb950324170e8d9598af5ee04ee070883eb28651a96788721fbf8360405160405180910390a43373ffffffffffffffffffffffffffffffffffffffff168c7ff898f1c7fd3545adf80b84c67f30f91b77b575134aedf8ae4999d4d1074739434260405161159a9190613061565b60405180910390a3505050505050505050505050565b600047905090565b80600060058111156115cd576115cc612e62565b5b6001600083815260200190815260200160002060060160009054906101000a900460ff16600581111561160357611602612e62565b5b1415806116735750600073ffffffffffffffffffffffffffffffffffffffff166001600083815260200190815260200160002060010160009054906101000a900473ffffffffffffffffffffffffffffffffffffffff1673ffffffffffffffffffffffffffffffffffffffff1614155b6116b2576040517f08c379a00000000000000000000000000000000000000000000000000000000081526004016116a99061360a565b60405180910390fd5b60006001600084815260200190815260200160002090508060010160009054906101000a900473ffffffffffffffffffffffffffffffffffffffff1673ffffffffffffffffffffffffffffffffffffffff163373ffffffffffffffffffffffffffffffffffffffff16148061177657508060020160009054906101000a900473ffffffffffffffffffffffffffffffffffffffff1673ffffffffffffffffffffffffffffffffffffffff163373ffffffffffffffffffffffffffffffffffffffff16145b6117b5576040517f08c379a00000000000000000000000000000000000000000000000000000000081526004016117ac90613cd5565b60405180910390fd5b600060058111156117c9576117c8612e62565b5b8160060160009054906101000a900460ff1660058111156117ed576117ec612e62565b5b148061182e57506001600581111561180857611807612e62565b5b8160060160009054906101000a900460ff16600581111561182c5761182b612e62565b5b145b61186d576040517f08c379a000000000000000000000000000000000000000000000000000000000815260040161186490613d67565b60405180910390fd5b60048160060160006101000a81548160ff0219169083600581111561189557611894612e62565b5b0217905550600081600501541115611998578060010160009054906101000a900473ffffffffffffffffffffffffffffffffffffffff1673ffffffffffffffffffffffffffffffffffffffff166108fc82600501549081150290604051600060405180830381858888f19350505050158015611915573d6000803e3d6000fd5b50600081600501819055508060010160009054906101000a900473ffffffffffffffffffffffffffffffffffffffff1673ffffffffffffffffffffffffffffffffffffffff16837f9669f025b4342eb372848cb2400f66d752f2dc7eb29866cd29920c0ac6d8d367836005015460405161198f9190613061565b60405180910390a35b8060010160009054906101000a900473ffffffffffffffffffffffffffffffffffffffff1673ffffffffffffffffffffffffffffffffffffffff16837fa6eb7cdc219e1518ced964e9a34e61d68a94e4f1569db3e84256ba981ba5275360405160405180910390a3505050565b8060006005811115611a1a57611a19612e62565b5b6001600083815260200190815260200160002060060160009054906101000a900460ff166005811115611a5057611a4f612e62565b5b141580611ac05750600073ffffffffffffffffffffffffffffffffffffffff166001600083815260200190815260200160002060010160009054906101000a900473ffffffffffffffffffffffffffffffffffffffff1673ffffffffffffffffffffffffffffffffffffffff1614155b611aff576040517f08c379a0000000000000000000000000000000000000000000000000000000008152600401611af69061360a565b60405180910390fd5b816001600082815260200190815260200160002060020160009054906101000a900473ffffffffffffffffffffffffffffffffffffffff1673ffffffffffffffffffffffffffffffffffffffff163373ffffffffffffffffffffffffffffffffffffffff1614611ba4576040517f08c379a0000000000000000000000000000000000000000000000000000000008152600401611b9b90613b6b565b60405180910390fd5b600060016000858152602001908152602001600020905060016005811115611bcf57611bce612e62565b5b8160060160009054906101000a900460ff166005811115611bf357611bf2612e62565b5b14611c33576040517f08c379a0000000000000000000000000000000000000000000000000000000008152600401611c2a90613df9565b60405180910390fd5b60028160060160006101000a81548160ff02191690836005811115611c5b57611c5a612e62565b5b02179055503373ffffffffffffffffffffffffffffffffffffffff16847fdeb574de1e78e0bf57d427ed95276ae59795192841eb9424711567f1ebc978b660405160405180910390a350505050565b8060006005811115611cbf57611cbe612e62565b5b6001600083815260200190815260200160002060060160009054906101000a900460ff166005811115611cf557611cf4612e62565b5b141580611d655750600073ffffffffffffffffffffffffffffffffffffffff166001600083815260200190815260200160002060010160009054906101000a900473ffffffffffffffffffffffffffffffffffffffff1673ffffffffffffffffffffffffffffffffffffffff1614155b611da4576040517f08c379a0000000000000000000000000000000000000000000000000000000008152600401611d9b9061360a565b60405180910390fd5b816001600082815260200190815260200160002060020160009054906101000a900473ffffffffffffffffffffffffffffffffffffffff1673ffffffffffffffffffffffffffffffffffffffff163373ffffffffffffffffffffffffffffffffffffffff1614611e49576040517f08c379a0000000000000000000000000000000000000000000000000000000008152600401611e4090613b6b565b60405180910390fd5b600060016000858152602001908152602001600020905060026005811115611e7457611e73612e62565b5b8160060160009054906101000a900460ff166005811115611e9857611e97612e62565b5b14611ed8576040517f08c379a0000000000000000000000000000000000000000000000000000000008152600401611ecf90613e8b565b60405180910390fd5b60038160060160006101000a81548160ff02191690836005811115611f0057611eff612e62565b5b02179055504281600801819055508060020160009054906101000a900473ffffffffffffffffffffffffffffffffffffffff1673ffffffffffffffffffffffffffffffffffffffff166108fc82600501549081150290604051600060405180830381858888f19350505050158015611f7c573d6000803e3d6000fd5b50600081600501819055508060010160009054906101000a900473ffffffffffffffffffffffffffffffffffffffff1673ffffffffffffffffffffffffffffffffffffffff16847f9942e36f73c28a928feace10746dbe0a9e140e284ab7c5a1740405db6a1193fb8360020160009054906101000a900473ffffffffffffffffffffffffffffffffffffffff166040516120169190613eab565b60405180910390a350505050565b6000808c815260200190815260200160002060060160009054906101000a900460ff1615612087576040517f08c379a000000000000000000000000000000000000000000000000000000000815260040161207e90613f12565b60405180910390fd5b60008060008d8152602001908152602001600020905060018160060160006101000a81548160ff021916908315150217905550338160000160006101000a81548173ffffffffffffffffffffffffffffffffffffffff021916908373ffffffffffffffffffffffffffffffffffffffff160217905550338160010160006101000a81548173ffffffffffffffffffffffffffffffffffffffff021916908373ffffffffffffffffffffffffffffffffffffffff1602179055508a8a826002019182612153929190613f3d565b508888826003019182612167929190613f3d565b5042816004018190555060006040518060c001604052803373ffffffffffffffffffffffffffffffffffffffff16815260200142815260200189815260200188815260200187878080601f016020809104026020016040519081016040528093929190818152602001838380828437600081840152601f19601f82011690508083019250505050505050815260200185858080601f016020809104026020016040519081016040528093929190818152602001838380828437600081840152601f19601f8201169050808301925050505050505081525090508160050181908060018154018082558091505060019003906000526020600020906006020160009091909190915060008201518160000160006101000a81548173ffffffffffffffffffffffffffffffffffffffff021916908373ffffffffffffffffffffffffffffffffffffffff16021790555060208201518160010155604082015181600201556060820151816003015560808201518160040190816122e89190613a27565b5060a08201518160050190816122fe9190613a27565b5050503373ffffffffffffffffffffffffffffffffffffffff168d7f05c2d1d93e19562777e5fbbac5efa21ccf5c9198753788ac7a4552e0087bd1d68e8e60405161234a929190614049565b60405180910390a33373ffffffffffffffffffffffffffffffffffffffff168d7ff898f1c7fd3545adf80b84c67f30f91b77b575134aedf8ae4999d4d107473943426040516123999190613061565b60405180910390a350505050505050505050505050565b8360008082815260200190815260200160002060060160009054906101000a900460ff16612413576040517f08c379a000000000000000000000000000000000000000000000000000000000815260040161240a906134a3565b60405180910390fd5b8373ffffffffffffffffffffffffffffffffffffffff163373ffffffffffffffffffffffffffffffffffffffff1603612481576040517f08c379a0000000000000000000000000000000000000000000000000000000008152600401612478906140b9565b60405180910390fd5b600073ffffffffffffffffffffffffffffffffffffffff166001600088815260200190815260200160002060010160009054906101000a900473ffffffffffffffffffffffffffffffffffffffff1673ffffffffffffffffffffffffffffffffffffffff1614612526576040517f08c379a000000000000000000000000000000000000000000000000000000000815260040161251d90614125565b60405180910390fd5b6000600160008881526020019081526020016000209050858160000181905550338160010160006101000a81548173ffffffffffffffffffffffffffffffffffffffff021916908373ffffffffffffffffffffffffffffffffffffffff160217905550848160020160006101000a81548173ffffffffffffffffffffffffffffffffffffffff021916908373ffffffffffffffffffffffffffffffffffffffff16021790555083816003018190555082816004018190555060008160060160006101000a81548160ff0219169083600581111561260657612605612e62565b5b02179055504281600701819055503373ffffffffffffffffffffffffffffffffffffffff1686887f0c27fff1db9ee37d5eca8cfdc0fad8592fb3ca2b53679f58320478774e9c6727888760405161265e929190614145565b60405180910390a450505050505050565b60608160008082815260200190815260200160002060060160009054906101000a900460ff166126d4576040517f08c379a00000000000000000000000000000000000000000000000000000000081526004016126cb906134a3565b60405180910390fd5b600080848152602001908152602001600020600501805480602002602001604051908101604052809291908181526020016000905b828210156128d357838290600052602060002090600602016040518060c00160405290816000820160009054906101000a900473ffffffffffffffffffffffffffffffffffffffff1673ffffffffffffffffffffffffffffffffffffffff1673ffffffffffffffffffffffffffffffffffffffff1681526020016001820154815260200160028201548152602001600382015481526020016004820180546127b09061358d565b80601f01602080910402602001604051908101604052809291908181526020018280546127dc9061358d565b80156128295780601f106127fe57610100808354040283529160200191612829565b820191906000526020600020905b81548152906001019060200180831161280c57829003601f168201915b505050505081526020016005820180546128429061358d565b80601f016020809104026020016040519081016040528092919081815260200182805461286e9061358d565b80156128bb5780601f10612890576101008083540402835291602001916128bb565b820191906000526020600020905b81548152906001019060200180831161289e57829003601f168201915b50505050508152505081526020019060010190612709565b50505050915050919050565b60008060008084600060058111156128fa576128f9612e62565b5b6001600083815260200190815260200160002060060160009054906101000a900460ff1660058111156129305761292f612e62565b5b1415806129a05750600073ffffffffffffffffffffffffffffffffffffffff166001600083815260200190815260200160002060010160009054906101000a900473ffffffffffffffffffffffffffffffffffffffff1673ffffffffffffffffffffffffffffffffffffffff1614155b6129df576040517f08c379a00000000000000000000000000000000000000000000000000000000081526004016129d69061360a565b60405180910390fd5b60006001600088815260200190815260200160002090508060060160009054906101000a900460ff16816005015460016005811115612a2157612a20612e62565b5b8360060160009054906101000a900460ff166005811115612a4557612a44612e62565b5b101560036005811115612a5b57612a5a612e62565b5b8460060160009054906101000a900460ff166005811115612a7f57612a7e612e62565b5b14955095509550955050509193509193565b600080fd5b600080fd5b6000819050919050565b612aae81612a9b565b8114612ab957600080fd5b50565b600081359050612acb81612aa5565b92915050565b6000819050919050565b612ae481612ad1565b8114612aef57600080fd5b50565b600081359050612b0181612adb565b92915050565b60008060408385031215612b1e57612b1d612a91565b5b6000612b2c85828601612abc565b9250506020612b3d85828601612af2565b9150509250929050565b600073ffffffffffffffffffffffffffffffffffffffff82169050919050565b6000612b7282612b47565b9050919050565b612b8281612b67565b82525050565b612b9181612ad1565b82525050565b600081519050919050565b600082825260208201905092915050565b60005b83811015612bd1578082015181840152602081019050612bb6565b60008484015250505050565b6000601f19601f8301169050919050565b6000612bf982612b97565b612c038185612ba2565b9350612c13818560208601612bb3565b612c1c81612bdd565b840191505092915050565b600060c082019050612c3c6000830189612b79565b612c496020830188612b88565b612c566040830187612b88565b612c636060830186612b88565b8181036080830152612c758185612bee565b905081810360a0830152612c898184612bee565b9050979650505050505050565b600060208284031215612cac57612cab612a91565b5b6000612cba84828501612abc565b91505092915050565b600080fd5b600080fd5b600080fd5b60008083601f840112612ce857612ce7612cc3565b5b8235905067ffffffffffffffff811115612d0557612d04612cc8565b5b602083019150836001820283011115612d2157612d20612ccd565b5b9250929050565b600080600080600080600060a0888a031215612d4757612d46612a91565b5b6000612d558a828b01612abc565b9750506020612d668a828b01612af2565b9650506040612d778a828b01612af2565b955050606088013567ffffffffffffffff811115612d9857612d97612a96565b5b612da48a828b01612cd2565b9450945050608088013567ffffffffffffffff811115612dc757612dc6612a96565b5b612dd38a828b01612cd2565b925092505092959891949750929550565b600060c082019050612df96000830189612b79565b612e066020830188612b79565b8181036040830152612e188187612bee565b90508181036060830152612e2c8186612bee565b9050612e3b6080830185612b88565b612e4860a0830184612b88565b979650505050505050565b612e5c81612a9b565b82525050565b7f4e487b7100000000000000000000000000000000000000000000000000000000600052602160045260246000fd5b60068110612ea257612ea1612e62565b5b50565b6000819050612eb382612e91565b919050565b6000612ec382612ea5565b9050919050565b612ed381612eb8565b82525050565b600061012082019050612eef600083018c612e53565b612efc602083018b612b79565b612f09604083018a612b79565b612f166060830189612b88565b612f236080830188612b88565b612f3060a0830187612b88565b612f3d60c0830186612eca565b612f4a60e0830185612b88565b612f58610100830184612b88565b9a9950505050505050505050565b612f6f81612b67565b8114612f7a57600080fd5b50565b600081359050612f8c81612f66565b92915050565b60008060008060008060008060c0898b031215612fb257612fb1612a91565b5b6000612fc08b828c01612abc565b9850506020612fd18b828c01612f7d565b9750506040612fe28b828c01612af2565b9650506060612ff38b828c01612af2565b955050608089013567ffffffffffffffff81111561301457613013612a96565b5b6130208b828c01612cd2565b945094505060a089013567ffffffffffffffff81111561304357613042612a96565b5b61304f8b828c01612cd2565b92509250509295985092959890939650565b60006020820190506130766000830184612b88565b92915050565b600080600080600080600080600080600060e08c8e0312156130a1576130a0612a91565b5b60006130af8e828f01612abc565b9b505060208c013567ffffffffffffffff8111156130d0576130cf612a96565b5b6130dc8e828f01612cd2565b9a509a505060408c013567ffffffffffffffff8111156130ff576130fe612a96565b5b61310b8e828f01612cd2565b9850985050606061311e8e828f01612af2565b965050608061312f8e828f01612af2565b95505060a08c013567ffffffffffffffff8111156131505761314f612a96565b5b61315c8e828f01612cd2565b945094505060c08c013567ffffffffffffffff81111561317f5761317e612a96565b5b61318b8e828f01612cd2565b92509250509295989b509295989b9093969950565b600080600080600060a086880312156131bc576131bb612a91565b5b60006131ca88828901612abc565b95505060206131db88828901612abc565b94505060406131ec88828901612f7d565b93505060606131fd88828901612af2565b925050608061320e88828901612af2565b9150509295509295909350565b600081519050919050565b600082825260208201905092915050565b6000819050602082019050919050565b61325081612b67565b82525050565b61325f81612ad1565b82525050565b600082825260208201905092915050565b600061328182612b97565b61328b8185613265565b935061329b818560208601612bb3565b6132a481612bdd565b840191505092915050565b600060c0830160008301516132c76000860182613247565b5060208301516132da6020860182613256565b5060408301516132ed6040860182613256565b5060608301516133006060860182613256565b50608083015184820360808601526133188282613276565b91505060a083015184820360a08601526133328282613276565b9150508091505092915050565b600061334b83836132af565b905092915050565b6000602082019050919050565b600061336b8261321b565b6133758185613226565b93508360208202850161338785613237565b8060005b858110156133c357848403895281516133a4858261333f565b94506133af83613353565b925060208a0199505060018101905061338b565b50829750879550505050505092915050565b600060208201905081810360008301526133ef8184613360565b905092915050565b60008115159050919050565b61340c816133f7565b82525050565b60006080820190506134276000830187612eca565b6134346020830186612b88565b6134416040830185613403565b61344e6060830184613403565b95945050505050565b7f50726f64756374206e6f7420666f756e64000000000000000000000000000000600082015250565b600061348d601183612ba2565b915061349882613457565b602082019050919050565b600060208201905081810360008301526134bc81613480565b9050919050565b7f496e646578206f7574206f6620626f756e647300000000000000000000000000600082015250565b60006134f9601383612ba2565b9150613504826134c3565b602082019050919050565b60006020820190508181036000830152613528816134ec565b9050919050565b7f4e487b7100000000000000000000000000000000000000000000000000000000600052603260045260246000fd5b7f4e487b7100000000000000000000000000000000000000000000000000000000600052602260045260246000fd5b600060028204905060018216806135a557607f821691505b6020821081036135b8576135b761355e565b5b50919050565b7f4f72646572206e6f7420666f756e640000000000000000000000000000000000600082015250565b60006135f4600f83612ba2565b91506135ff826135be565b602082019050919050565b60006020820190508181036000830152613623816135e7565b9050919050565b7f4f6e6c792062757965722063616e20706572666f726d2074686973206163746960008201527f6f6e000000000000000000000000000000000000000000000000000000000000602082015250565b6000613686602283612ba2565b91506136918261362a565b604082019050919050565b600060208201905081810360008301526136b581613679565b9050919050565b7f4f72646572206d75737420626520696e2043726561746564207374617475732060008201527f746f207061790000000000000000000000000000000000000000000000000000602082015250565b6000613718602683612ba2565b9150613723826136bc565b604082019050919050565b600060208201905081810360008301526137478161370b565b9050919050565b7f5061796d656e7420616d6f756e74206d757374206d6174636820746f74616c2060008201527f7072696365000000000000000000000000000000000000000000000000000000602082015250565b60006137aa602583612ba2565b91506137b58261374e565b604082019050919050565b600060208201905081810360008301526137d98161379d565b9050919050565b7f4f6e6c79206f776e65722063616e206164642074726163650000000000000000600082015250565b6000613816601883612ba2565b9150613821826137e0565b602082019050919050565b6000602082019050818103600083015261384581613809565b9050919050565b7f4e487b7100000000000000000000000000000000000000000000000000000000600052604160045260246000fd5b60008190508160005260206000209050919050565b60006020601f8301049050919050565b600082821b905092915050565b6000600883026138dd7fffffffffffffffffffffffffffffffffffffffffffffffffffffffffffffffff826138a0565b6138e786836138a0565b95508019841693508086168417925050509392505050565b6000819050919050565b600061392461391f61391a84612ad1565b6138ff565b612ad1565b9050919050565b6000819050919050565b61393e83613909565b61395261394a8261392b565b8484546138ad565b825550505050565b600090565b61396761395a565b613972818484613935565b505050565b5b818110156139965761398b60008261395f565b600181019050613978565b5050565b601f8211156139db576139ac8161387b565b6139b584613890565b810160208510156139c4578190505b6139d86139d085613890565b830182613977565b50505b505050565b600082821c905092915050565b60006139fe600019846008026139e0565b1980831691505092915050565b6000613a1783836139ed565b9150826002028217905092915050565b613a3082612b97565b67ffffffffffffffff811115613a4957613a4861384c565b5b613a53825461358d565b613a5e82828561399a565b600060209050601f831160018114613a915760008415613a7f578287015190505b613a898582613a0b565b865550613af1565b601f198416613a9f8661387b565b60005b82811015613ac757848901518255600182019150602085019450602081019050613aa2565b86831015613ae45784890151613ae0601f8916826139ed565b8355505b6001600288020188555050505b505050505050565b7f4f6e6c792073656c6c65722063616e20706572666f726d20746869732061637460008201527f696f6e0000000000000000000000000000000000000000000000000000000000602082015250565b6000613b55602383612ba2565b9150613b6082613af9565b604082019050919050565b60006020820190508181036000830152613b8481613b48565b9050919050565b7f4f72646572206d7573742062652070616964206265666f726520636f6e66697260008201527f6d6174696f6e0000000000000000000000000000000000000000000000000000602082015250565b6000613be7602683612ba2565b9150613bf282613b8b565b604082019050919050565b60006020820190508181036000830152613c1681613bda565b9050919050565b7f4f6e6c79206f776e65722063616e207472616e73666572000000000000000000600082015250565b6000613c53601783612ba2565b9150613c5e82613c1d565b602082019050919050565b60006020820190508181036000830152613c8281613c46565b9050919050565b7f4f6e6c79206275796572206f722073656c6c65722063616e2063616e63656c00600082015250565b6000613cbf601f83612ba2565b9150613cca82613c89565b602082019050919050565b60006020820190508181036000830152613cee81613cb2565b9050919050565b7f4f726465722063616e6e6f742062652063616e63656c6c65642061742074686960008201527f7320737461676500000000000000000000000000000000000000000000000000602082015250565b6000613d51602783612ba2565b9150613d5c82613cf5565b604082019050919050565b60006020820190508181036000830152613d8081613d44565b9050919050565b7f4f72646572206d7573742062652070616964206265666f72652073686970706960008201527f6e67000000000000000000000000000000000000000000000000000000000000602082015250565b6000613de3602283612ba2565b9150613dee82613d87565b604082019050919050565b60006020820190508181036000830152613e1281613dd6565b9050919050565b7f4f72646572206d7573742062652073686970706564206265666f72652064656c60008201527f6976657279000000000000000000000000000000000000000000000000000000602082015250565b6000613e75602583612ba2565b9150613e8082613e19565b604082019050919050565b60006020820190508181036000830152613ea481613e68565b9050919050565b6000602082019050613ec06000830184612b79565b92915050565b7f50726f6475637420616c72656164792065786973747300000000000000000000600082015250565b6000613efc601683612ba2565b9150613f0782613ec6565b602082019050919050565b60006020820190508181036000830152613f2b81613eef565b9050919050565b600082905092915050565b613f478383613f32565b67ffffffffffffffff811115613f6057613f5f61384c565b5b613f6a825461358d565b613f7582828561399a565b6000601f831160018114613fa45760008415613f92578287013590505b613f9c8582613a0b565b865550614004565b601f198416613fb28661387b565b60005b82811015613fda57848901358255600182019150602085019450602081019050613fb5565b86831015613ff75784890135613ff3601f8916826139ed565b8355505b6001600288020188555050505b50505050505050565b82818337600083830152505050565b60006140288385612ba2565b935061403583858461400d565b61403e83612bdd565b840190509392505050565b6000602082019050818103600083015261406481848661401c565b90509392505050565b7f42757965722063616e6e6f74206265207468652073656c6c6572000000000000600082015250565b60006140a3601a83612ba2565b91506140ae8261406d565b602082019050919050565b600060208201905081810360008301526140d281614096565b9050919050565b7f4f7264657220616c726561647920657869737473000000000000000000000000600082015250565b600061410f601483612ba2565b915061411a826140d9565b602082019050919050565b6000602082019050818103600083015261413e81614102565b9050919050565b600060408201905061415a6000830185612b79565b6141676020830184612b88565b939250505056fea2646970667358221220b8f2507d095fef5d045e12f501b31eb01bd87b38daf987b0881ae1a84c3e220164736f6c63430008140033",
  "linkReferences": {},
  "deployedLinkReferences": {}
}