{
  "contractName": "SupplyChain",
  "abi": [
    {
      "inputs": [],
      "stateMutability": "nonpayable",
      "type": "constructor"
    },
    {
      "anonymous": false,
      "inputs": [
        {
          "indexed": true,
          "internalType": "bytes32",
          "name": "productId",
          "type": "bytes32"
        },
        {
          "indexed": true,
          "internalType": "address",
          "name": "oldOwner",
          "type": "address"
        },
        {
          "indexed": true,
          "internalType": "address",
          "name": "newOwner",
          "type": "address"
        }
      ],
      "name": "OwnershipTransferred",
      "type": "event"
    },
    {
      "anonymous": false,
      "inputs": [
        {
          "indexed": true,
          "internalType": "bytes32",
          "name": "productId",
          "type": "bytes32"
        },
        {
          "indexed": true,
          "internalType": "address",
          "name": "origin",
          "type": "address"
        },
        {
          "indexed": false,
          "internalType": "string",
          "name": "name",
          "type": "string"
        }
      ],
      "name": "ProductCreated",
      "type": "event"
    },
    {
      "anonymous": false,
      "inputs": [
        {
          "indexed": true,
          "internalType": "bytes32",
          "name": "productId",
          "type": "bytes32"
        },
        {
          "indexed": true,
          "internalType": "address",
          "name": "actor",
          "type": "address"
        },
        {
          "indexed": false,
          "internalType": "uint256",
          "name": "timestamp",
          "type": "uint256"
        }
      ],
      "name": "TraceAdded",
      "type": "event"
    },
    {
      "inputs": [
        {
          "internalType": "bytes32",
          "name": "productId",
          "type": "bytes32"
        },
        {
          "internalType": "string",
          "name": "name",
          "type": "string"
        },
        {
          "internalType": "string",
          "name": "category",
          "type": "string"
        },
        {
          "internalType": "uint256",
          "name": "initialQuantity",
          "type": "uint256"
        },
        {
          "internalType": "uint256",
          "name": "pricePerUnit",
          "type": "uint256"
        },
        {
          "internalType": "string",
          "name": "quality",
          "type": "string"
        },
        {
          "internalType": "string",
          "name": "metaUri",
          "type": "string"
        }
      ],
      "name": "createProduct",
      "outputs": [],
      "stateMutability": "nonpayable",
      "type": "function"
    },
    {
      "inputs": [
        {
          "internalType": "bytes32",
          "name": "productId",
          "type": "bytes32"
        },
        {
          "internalType": "uint256",
          "name": "quantity",
          "type": "uint256"
        },
        {
          "internalType": "uint256",
          "name": "pricePerUnit",
          "type": "uint256"
        },
        {
          "internalType": "string",
          "name": "quality",
          "type": "string"
        },
        {
          "internalType": "string",
          "name": "metaUri",
          "type": "string"
        }
      ],
      "name": "addTrace",
      "outputs": [],
      "stateMutability": "nonpayable",
      "type": "function"
    },
    {
      "inputs": [
        {
          "internalType": "bytes32",
          "name": "productId",
          "type": "bytes32"
        },
        {
          "internalType": "address",
          "name": "newOwner",
          "type": "address"
        },
        {
          "internalType": "uint256",
          "name": "quantity",
          "type": "uint256"
        },
        {
          "internalType": "uint256",
          "name": "pricePerUnit",
          "type": "uint256"
        },
        {
          "internalType": "string",
          "name": "quality",
          "type": "string"
        },
        {
          "internalType": "string",
          "name": "metaUri",
          "type": "string"
        }
      ],
      "name": "transferOwnership",
      "outputs": [],
      "stateMutability": "nonpayable",
      "type": "function"
    },
    {
      "inputs": [
        {
          "internalType": "bytes32",
          "name": "productId",
          "type": "bytes32"
        }
      ],
      "name": "getProduct",
      "outputs": [
        {
          "internalType": "address",
          "name": "currentOwner",
          "type": "address"
        },
        {
          "internalType": "address",
          "name": "origin",
          "type": "address"
        },
        {
          "internalType": "string",
          "name": "name",
          "type": "string"
        },
        {
          "internalType": "string",
          "name": "category",
          "type": "string"
        },
        {
          "internalType": "uint256",
          "name": "createdAt",
          "type": "uint256"
        },
        {
          "internalType": "uint256",
          "name": "traceCount",
          "type": "uint256"
        }
      ],
      "stateMutability": "view",
      "type": "function",
      "constant": true
    },
    {
      "inputs": [
        {
          "internalType": "bytes32",
          "name": "productId",
          "type": "bytes32"
        },
        {
          "internalType": "uint256",
          "name": "index",
          "type": "uint256"
        }
      ],
      "name": "getTrace",
      "outputs": [
        {
          "internalType": "address",
          "name": "actor",
          "type": "address"
        },
        {
          "internalType": "uint256",
          "name": "timestamp",
          "type": "uint256"
        },
        {
          "internalType": "uint256",
          "name": "quantity",
          "type": "uint256"
        },
        {
          "internalType": "uint256",
          "name": "pricePerUnit",
          "type": "uint256"
        },
        {
          "internalType": "string",
          "name": "quality",
          "type": "string"
        },
        {
          "internalType": "string",
          "name": "metaUri",
          "type": "string"
        }
      ],
      "stateMutability": "view",
      "type": "function",
      "constant": true
    },
    {
      "inputs": [
        {
          "internalType": "bytes32",
          "name": "productId",
          "type": "bytes32"
        }
      ],
      "name": "getAllTraces",
      "outputs": [
        {
          "components": [
            {
              "internalType": "address",
              "name": "actor",
              "type": "address"
            },
            {
              "internalType": "uint256",
              "name": "timestamp",
              "type": "uint256"
            },
            {
              "internalType": "uint256",
              "name": "quantity",
              "type": "uint256"
            },
            {
              "internalType": "uint256",
              "name": "pricePerUnit",
              "type": "uint256"
            },
            {
              "internalType": "string",
              "name": "quality",
              "type": "string"
            },
            {
              "internalType": "string",
              "name": "metaUri",
              "type": "string"
            }
          ],
          "internalType": "struct SupplyChain.Trace[]",
          "name": "",
          "type": "tuple[]"
        }
      ],
      "stateMutability": "view",
      "type": "function",
      "constant": true
    }
  ],
  "bytecode": "0x608060405234801561001057600080fd5b506114ca806100206000396000f3fe608060405234801561001057600080fd5b50600436106100625760003560e01c806317e2f34a1461006757806325f85cc0146100955780633a20e9df146100aa5780636e6f1cb6146100cf578063ad572267146100e2578063ddc12528146100f5575b600080fd5b61007a610075366004610dbd565b610115565b60405161008c96959493929190610e25565b60405180910390f35b6100a86100a3366004610ec0565b61033a565b005b6100bd6100b8366004610f4d565b610543565b60405161008c96959493929190610f66565b6100a86100dd366004610fba565b6106ed565b6100a86100f0366004611065565b61094a565b610108610103366004610f4d565b610bc5565b60405161008c919061114d565b6000828152602081905260408120600601548190819081906060908190889060ff1661015c5760405162461bcd60e51b81526004016101539061120a565b60405180910390fd5b6000898152602081905260409020600581015489106101b35760405162461bcd60e51b8152602060048201526013602482015272496e646578206f7574206f6620626f756e647360681b6044820152606401610153565b6000816005018a815481106101ca576101ca611235565b906000526020600020906006020190508060000160009054906101000a90046001600160a01b031681600101548260020154836003015484600401856005018180546102159061124b565b80601f01602080910402602001604051908101604052809291908181526020018280546102419061124b565b801561028e5780601f106102635761010080835404028352916020019161028e565b820191906000526020600020905b81548152906001019060200180831161027157829003601f168201915b505050505091508080546102a19061124b565b80601f01602080910402602001604051908101604052809291908181526020018280546102cd9061124b565b801561031a5780601f106102ef5761010080835404028352916020019161031a565b820191906000526020600020905b8154815290600101906020018083116102fd57829003601f168201915b505050505090509850985098509850985098505050509295509295509295565b600087815260208190526040902060060154879060ff1661036d5760405162461bcd60e51b81526004016101539061120a565b600088815260208190526040902080546001600160a01b031633146103d45760405162461bcd60e51b815260206004820152601860248201527f4f6e6c79206f776e65722063616e2061646420747261636500000000000000006044820152606401610153565b60006040518060c00160405280336001600160a01b031681526020014281526020018a815260200189815260200188888080601f016020809104026020016040519081016040528093929190818152602001838380828437600092019190915250505090825250604080516020601f890181900481028201810190925287815291810191908890889081908401838280828437600092018290525093909452505060058501805460018082018355918352602092839020855160069092020180546001600160a01b0319166001600160a01b03909216919091178155918401519082015560408301516002820155606083015160038201556080830151929350839290915060048201906104e890826112e4565b5060a082015160058201906104fd90826112e4565b50506040514281523391508b907ff898f1c7fd3545adf80b84c67f30f91b77b575134aedf8ae4999d4d1074739439060200160405180910390a350505050505050505050565b6000818152602081905260408120600601548190606090819083908190879060ff166105815760405162461bcd60e51b81526004016101539061120a565b600088815260208190526040902080546001820154600483015460058401546002850180546001600160a01b03958616959094169390926003870192909184906105ca9061124b565b80601f01602080910402602001604051908101604052809291908181526020018280546105f69061124b565b80156106435780601f1061061857610100808354040283529160200191610643565b820191906000526020600020905b81548152906001019060200180831161062657829003601f168201915b505050505093508280546106569061124b565b80601f01602080910402602001604051908101604052809291908181526020018280546106829061124b565b80156106cf5780601f106106a4576101008083540402835291602001916106cf565b820191906000526020600020905b8154815290600101906020018083116106b257829003601f168201915b50505050509250975097509750975097509750505091939550919395565b600088815260208190526040902060060154889060ff166107205760405162461bcd60e51b81526004016101539061120a565b600089815260208190526040902080546001600160a01b03163381146107885760405162461bcd60e51b815260206004820152601760248201527f4f6e6c79206f776e65722063616e207472616e736665720000000000000000006044820152606401610153565b81546001600160a01b0319166001600160a01b038b161782556040805160c081018252338152426020808301919091528183018c9052606082018b90528251601f8a0182900482028101820190935288835260009260808301918b908b9081908401838280828437600092019190915250505090825250604080516020601f8a0181900481028201810190925288815291810191908990899081908401838280828437600092018290525093909452505060058601805460018082018355918352602092839020855160069092020180546001600160a01b0319166001600160a01b03909216919091178155918401519082015560408301516002820155606083015160038201556080830151929350839290915060048201906108ac90826112e4565b5060a082015160058201906108c190826112e4565b5050508a6001600160a01b0316826001600160a01b03168d7f0b659dccc8eb950324170e8d9598af5ee04ee070883eb28651a96788721fbf8360405160405180910390a460405142815233908d907ff898f1c7fd3545adf80b84c67f30f91b77b575134aedf8ae4999d4d1074739439060200160405180910390a3505050505050505050505050565b60008b81526020819052604090206006015460ff16156109a55760405162461bcd60e51b815260206004820152601660248201527550726f6475637420616c72656164792065786973747360501b6044820152606401610153565b60008b815260208190526040902060068101805460ff1916600190811790915581546001600160a01b031990811633908117845591830180549091169091179055600281016109f58b8d836113a4565b5060038101610a05898b836113a4565b5042816004018190555060006040518060c00160405280336001600160a01b0316815260200142815260200189815260200188815260200187878080601f016020809104026020016040519081016040528093929190818152602001838380828437600092019190915250505090825250604080516020601f880181900481028201810190925286815291810191908790879081908401838280828437600092018290525093909452505060058501805460018082018355918352602092839020855160069092020180546001600160a01b0319166001600160a01b0390921691909117815591840151908201556040830151600282015560608301516003820155608083015192935083929091506004820190610b2390826112e4565b5060a08201516005820190610b3890826112e4565b505050336001600160a01b03168d7f05c2d1d93e19562777e5fbbac5efa21ccf5c9198753788ac7a4552e0087bd1d68e8e604051610b77929190611465565b60405180910390a360405142815233908e907ff898f1c7fd3545adf80b84c67f30f91b77b575134aedf8ae4999d4d1074739439060200160405180910390a350505050505050505050505050565b600081815260208190526040902060060154606090829060ff16610bfb5760405162461bcd60e51b81526004016101539061120a565b60008381526020818152604080832060050180548251818502810185019093528083529193909284015b82821015610db05760008481526020908190206040805160c0810182526006860290920180546001600160a01b0316835260018101549383019390935260028301549082015260038201546060820152600482018054919291608084019190610c8d9061124b565b80601f0160208091040260200160405190810160405280929190818152602001828054610cb99061124b565b8015610d065780601f10610cdb57610100808354040283529160200191610d06565b820191906000526020600020905b815481529060010190602001808311610ce957829003601f168201915b50505050508152602001600582018054610d1f9061124b565b80601f0160208091040260200160405190810160405280929190818152602001828054610d4b9061124b565b8015610d985780601f10610d6d57610100808354040283529160200191610d98565b820191906000526020600020905b815481529060010190602001808311610d7b57829003601f168201915b50505050508152505081526020019060010190610c25565b5050505091505b50919050565b60008060408385031215610dd057600080fd5b50508035926020909101359150565b6000815180845260005b81811015610e0557602081850181015186830182015201610de9565b506000602082860101526020601f19601f83011685010191505092915050565b60018060a01b038716815285602082015284604082015283606082015260c060808201526000610e5860c0830185610ddf565b82810360a0840152610e6a8185610ddf565b9998505050505050505050565b60008083601f840112610e8957600080fd5b50813567ffffffffffffffff811115610ea157600080fd5b602083019150836020828501011115610eb957600080fd5b9250929050565b600080600080600080600060a0888a031215610edb57600080fd5b873596506020880135955060408801359450606088013567ffffffffffffffff80821115610f0857600080fd5b610f148b838c01610e77565b909650945060808a0135915080821115610f2d57600080fd5b50610f3a8a828b01610e77565b989b979a50959850939692959293505050565b600060208284031215610f5f57600080fd5b5035919050565b6001600160a01b0387811682528616602082015260c060408201819052600090610f9290830187610ddf565b8281036060840152610fa48187610ddf565b6080840195909552505060a00152949350505050565b60008060008060008060008060c0898b031215610fd657600080fd5b8835975060208901356001600160a01b0381168114610ff457600080fd5b96506040890135955060608901359450608089013567ffffffffffffffff8082111561101f57600080fd5b61102b8c838d01610e77565b909650945060a08b013591508082111561104457600080fd5b506110518b828c01610e77565b999c989b5096995094979396929594505050565b600080600080600080600080600080600060e08c8e03121561108657600080fd5b8b359a5067ffffffffffffffff8060208e013511156110a457600080fd5b6110b48e60208f01358f01610e77565b909b50995060408d01358110156110ca57600080fd5b6110da8e60408f01358f01610e77565b909950975060608d0135965060808d0135955060a08d01358110156110fe57600080fd5b61110e8e60a08f01358f01610e77565b909550935060c08d013581101561112457600080fd5b506111358d60c08e01358e01610e77565b81935080925050509295989b509295989b9093969950565b60006020808301818452808551808352604092508286019150828160051b87010184880160005b838110156111fc57888303603f19018552815180516001600160a01b03168452878101518885015286810151878501526060808201519085015260808082015160c082870181905291906111ca83880182610ddf565b9250505060a080830151925085820381870152506111e88183610ddf565b968901969450505090860190600101611174565b509098975050505050505050565b602080825260119082015270141c9bd91d58dd081b9bdd08199bdd5b99607a1b604082015260600190565b634e487b7160e01b600052603260045260246000fd5b600181811c9082168061125f57607f821691505b602082108103610db757634e487b7160e01b600052602260045260246000fd5b634e487b7160e01b600052604160045260246000fd5b601f8211156112df57600081815260208120601f850160051c810160208610156112bc5750805b601f850160051c820191505b818110156112db578281556001016112c8565b5050505b505050565b815167ffffffffffffffff8111156112fe576112fe61127f565b6113128161130c845461124b565b84611295565b602080601f831160018114611347576000841561132f5750858301515b600019600386901b1c1916600185901b1785556112db565b600085815260208120601f198616915b8281101561137657888601518255948401946001909101908401611357565b50858210156113945787850151600019600388901b60f8161c191681555b5050505050600190811b01905550565b67ffffffffffffffff8311156113bc576113bc61127f565b6113d0836113ca835461124b565b83611295565b6000601f84116001811461140457600085156113ec5750838201355b600019600387901b1c1916600186901b17835561145e565b600083815260209020601f19861690835b828110156114355786850135825560209485019460019092019101611415565b50868210156114525760001960f88860031b161c19848701351681555b505060018560011b0183555b5050505050565b60208152816020820152818360408301376000818301604090810191909152601f909201601f1916010191905056fea264697066735822122081403dd3fd93b4c3fd3d0fb7be618a5baa4480b3147a92575f2540eb3fa0e2c564736f6c63430008140033",
  "immutableReferences": {},
  "source": "// SPDX-License-Identifier: MIT\r\npragma solidity ^0.8.20;\r\n\r\ncontract SupplyChain {\r\n    struct Trace {\r\n        address actor;\r\n        uint256 timestamp;\r\n        uint256 quantity;\r\n        uint256 pricePerUnit;\r\n        string quality;\r\n        string metaUri;\r\n    }\r\n\r\n    struct Product {\r\n        address currentOwner;\r\n        address origin;\r\n        string name;\r\n        string category;\r\n        uint256 createdAt;\r\n        Trace[] traces;\r\n        bool exists;\r\n    }\r\n\r\n    mapping(bytes32 => Product) private products;\r\n\r\n    // Events\r\n    event ProductCreated(bytes32 indexed productId, address indexed origin, string name);\r\n    event TraceAdded(bytes32 indexed productId, address indexed actor, uint256 timestamp);\r\n    event OwnershipTransferred(bytes32 indexed productId, address indexed oldOwner, address indexed newOwner);\r\n\r\n    // Constructor\r\n    constructor() {}\r\n\r\n    modifier productExists(bytes32 productId) {\r\n        require(products[productId].exists, \"Product not found\");\r\n        _;\r\n    }\r\n\r\n    function createProduct(\r\n        bytes32 productId,\r\n        string calldata name,\r\n        string calldata category,\r\n        uint256 initialQuantity,\r\n        uint256 pricePerUnit,\r\n        string calldata quality,\r\n        string calldata metaUri\r\n    ) external {\r\n        require(!products[productId].exists, \"Product already exists\");\r\n\r\n        Product storage p = products[productId];\r\n        p.exists = true;\r\n        p.currentOwner = msg.sender;\r\n        p.origin = msg.sender;\r\n        p.name = name;\r\n        p.category = category;\r\n        p.createdAt = block.timestamp;\r\n\r\n        // Create trace in memory before pushing\r\n        Trace memory initialTrace = Trace({\r\n            actor: msg.sender,\r\n            timestamp: block.timestamp,\r\n            quantity: initialQuantity,\r\n            pricePerUnit: pricePerUnit,\r\n            quality: quality,\r\n            metaUri: metaUri\r\n        });\r\n\r\n        p.traces.push(initialTrace);\r\n\r\n        emit ProductCreated(productId, msg.sender, name);\r\n        emit TraceAdded(productId, msg.sender, block.timestamp);\r\n    }\r\n\r\n    function addTrace(\r\n        bytes32 productId,\r\n        uint256 quantity,\r\n        uint256 pricePerUnit,\r\n        string calldata quality,\r\n        string calldata metaUri\r\n    ) external productExists(productId) {\r\n        Product storage p = products[productId];\r\n        require(msg.sender == p.currentOwner, \"Only owner can add trace\");\r\n\r\n        Trace memory t = Trace({\r\n            actor: msg.sender,\r\n            timestamp: block.timestamp,\r\n            quantity: quantity,\r\n            pricePerUnit: pricePerUnit,\r\n            quality: quality,\r\n            metaUri: metaUri\r\n        });\r\n\r\n        p.traces.push(t);\r\n\r\n        emit TraceAdded(productId, msg.sender, block.timestamp);\r\n    }\r\n\r\n    function transferOwnership(\r\n        bytes32 productId,\r\n        address newOwner,\r\n        uint256 quantity,\r\n        uint256 pricePerUnit,\r\n        string calldata quality,\r\n        string calldata metaUri\r\n    ) external productExists(productId) {\r\n        Product storage p = products[productId];\r\n        address oldOwner = p.currentOwner;\r\n        require(msg.sender == oldOwner, \"Only owner can transfer\");\r\n\r\n        p.currentOwner = newOwner;\r\n\r\n        Trace memory t = Trace({\r\n            actor: msg.sender,\r\n            timestamp: block.timestamp,\r\n            quantity: quantity,\r\n            pricePerUnit: pricePerUnit,\r\n            quality: quality,\r\n            metaUri: metaUri\r\n        });\r\n\r\n        p.traces.push(t);\r\n\r\n        emit OwnershipTransferred(productId, oldOwner, newOwner);\r\n        emit TraceAdded(productId, msg.sender, block.timestamp);\r\n    }\r\n\r\n    function getProduct(bytes32 productId) external view productExists(productId) returns (\r\n        address currentOwner,\r\n        address origin,\r\n        string memory name,\r\n        string memory category,\r\n        uint256 createdAt,\r\n        uint256 traceCount\r\n    ) {\r\n        Product storage p = products[productId];\r\n        return (p.currentOwner, p.origin, p.name, p.category, p.createdAt, p.traces.length);\r\n    }\r\n\r\n    function getTrace(bytes32 productId, uint256 index) external view productExists(productId) returns (\r\n        address actor,\r\n        uint256 timestamp,\r\n        uint256 quantity,\r\n        uint256 pricePerUnit,\r\n        string memory quality,\r\n        string memory metaUri\r\n    ) {\r\n        Product storage p = products[productId];\r\n        require(index < p.traces.length, \"Index out of bounds\");\r\n        Trace storage t = p.traces[index];\r\n        return (t.actor, t.timestamp, t.quantity, t.pricePerUnit, t.quality, t.metaUri);\r\n    }\r\n\r\n    function getAllTraces(bytes32 productId) external view productExists(productId) returns (Trace[] memory) {\r\n        return products[productId].traces;\r\n    }\r\n}\r\n",
  "sourcePath": "D:\\Mini_project\\blockchain\\contracts\\SupplyChain.sol",
  "compiler": {
    "name": "solc",
    "version": "0.8.20+commit.a1b79de6.Emscripten.clang"
  },
  "schemaVersion": "3.4.16",
  "updatedAt": "2025-11-28T18:14:48.838Z",
  "networkType": "ethereum",
  "devdoc": {
    "kind": "dev",
    "methods": {},
    "version": 1
  },
  "userdoc": {
    "kind": "user",
    "methods": {},
    "version": 1
  }
}