{
  "_format": "hh-sol-artifact-1",
  "contractName": "SupplyChain",
  "sourceName": "contracts/SupplyChain.sol",
  "abi": [
    {
      "inputs": [],
      "stateMutability": "nonpayable",
      "type": "constructor"
    },
    {
      "anonymous": false,
      "inputs": [
        {
          "indexed": true,
          "internalType": "bytes32",
          "name": "productId",
          "type": "bytes32"
        },
        {
          "indexed": true,
          "internalType": "address",
          "name": "oldOwner",
          "type": "address"
        },
        {
          "indexed": true,
          "internalType": "address",
          "name": "newOwner",
          "type": "address"
        }
      ],
      "name": "OwnershipTransferred",
      "type": "event"
    },
    {
      "anonymous": false,
      "inputs": [
        {
          "indexed": true,
          "internalType": "bytes32",
          "name": "productId",
          "type": "bytes32"
        },
        {
          "indexed": true,
          "internalType": "address",
          "name": "origin",
          "type": "address"
        },
        {
          "indexed": false,
          "internalType": "string",
          "name": "name",
          "type": "string"
        }
      ],
      "name": "ProductCreated",
      "type": "event"
    },
    {
      "anonymous": false,
      "inputs": [
        {
          "indexed": true,
          "internalType": "bytes32",
          "name": "productId",
          "type": "bytes32"
        },
        {
          "indexed": true,
          "internalType": "address",
          "name": "actor",
          "type": "address"
        },
        {
          "indexed": false,
          "internalType": "uint256",
          "name": "timestamp",
          "type": "uint256"
        }
      ],
      "name": "TraceAdded",
      "type": "event"
    },
    {
      "inputs": [
        {
          "internalType": "bytes32",
          "name": "productId",
          "type": "bytes32"
        },
        {
          "internalType": "uint256",
          "name": "quantity",
          "type": "uint256"
        },
        {
          "internalType": "uint256",
          "name": "pricePerUnit",
          "type": "uint256"
        },
        {
          "internalType": "string",
          "name": "quality",
          "type": "string"
        },
        {
          "internalType": "string",
          "name": "metaUri",
          "type": "string"
        }
      ],
      "name": "addTrace",
      "outputs": [],
      "stateMutability": "nonpayable",
      "type": "function"
    },
    {
      "inputs": [
        {
          "internalType": "bytes32",
          "name": "productId",
          "type": "bytes32"
        },
        {
          "internalType": "string",
          "name": "name",
          "type": "string"
        },
        {
          "internalType": "string",
          "name": "category",
          "type": "string"
        },
        {
          "internalType": "uint256",
          "name": "initialQuantity",
          "type": "uint256"
        },
        {
          "internalType": "uint256",
          "name": "pricePerUnit",
          "type": "uint256"
        },
        {
          "internalType": "string",
          "name": "quality",
          "type": "string"
        },
        {
          "internalType": "string",
          "name": "metaUri",
          "type": "string"
        }
      ],
      "name": "createProduct",
      "outputs": [],
      "stateMutability": "nonpayable",
      "type": "function"
    },
    {
      "inputs": [
        {
          "internalType": "bytes32",
          "name": "productId",
          "type": "bytes32"
        }
      ],
      "name": "getAllTraces",
      "outputs": [
        {
          "components": [
            {
              "internalType": "address",
              "name": "actor",
              "type": "address"
            },
            {
              "internalType": "uint256",
              "name": "timestamp",
              "type": "uint256"
            },
            {
              "internalType": "uint256",
              "name": "quantity",
              "type": "uint256"
            },
            {
              "internalType": "uint256",
              "name": "pricePerUnit",
              "type": "uint256"
            },
            {
              "internalType": "string",
              "name": "quality",
              "type": "string"
            },
            {
              "internalType": "string",
              "name": "metaUri",
              "type": "string"
            }
          ],
          "internalType": "struct SupplyChain.Trace[]",
          "name": "",
          "type": "tuple[]"
        }
      ],
      "stateMutability": "view",
      "type": "function"
    },
    {
      "inputs": [
        {
          "internalType": "bytes32",
          "name": "productId",
          "type": "bytes32"
        }
      ],
      "name": "getProduct",
      "outputs": [
        {
          "internalType": "address",
          "name": "currentOwner",
          "type": "address"
        },
        {
          "internalType": "address",
          "name": "origin",
          "type": "address"
        },
        {
          "internalType": "string",
          "name": "name",
          "type": "string"
        },
        {
          "internalType": "string",
          "name": "category",
          "type": "string"
        },
        {
          "internalType": "uint256",
          "name": "createdAt",
          "type": "uint256"
        },
        {
          "internalType": "uint256",
          "name": "traceCount",
          "type": "uint256"
        }
      ],
      "stateMutability": "view",
      "type": "function"
    },
    {
      "inputs": [
        {
          "internalType": "bytes32",
          "name": "productId",
          "type": "bytes32"
        },
        {
          "internalType": "uint256",
          "name": "index",
          "type": "uint256"
        }
      ],
      "name": "getTrace",
      "outputs": [
        {
          "internalType": "address",
          "name": "actor",
          "type": "address"
        },
        {
          "internalType": "uint256",
          "name": "timestamp",
          "type": "uint256"
        },
        {
          "internalType": "uint256",
          "name": "quantity",
          "type": "uint256"
        },
        {
          "internalType": "uint256",
          "name": "pricePerUnit",
          "type": "uint256"
        },
        {
          "internalType": "string",
          "name": "quality",
          "type": "string"
        },
        {
          "internalType": "string",
          "name": "metaUri",
          "type": "string"
        }
      ],
      "stateMutability": "view",
      "type": "function"
    },
    {
      "inputs": [
        {
          "internalType": "bytes32",
          "name": "productId",
          "type": "bytes32"
        },
        {
          "internalType": "address",
          "name": "newOwner",
          "type": "address"
        },
        {
          "internalType": "uint256",
          "name": "quantity",
          "type": "uint256"
        },
        {
          "internalType": "uint256",
          "name": "pricePerUnit",
          "type": "uint256"
        },
        {
          "internalType": "string",
          "name": "quality",
          "type": "string"
        },
        {
          "internalType": "string",
          "name": "metaUri",
          "type": "string"
        }
      ],
      "name": "transferOwnership",
      "outputs": [],
      "stateMutability": "nonpayable",
      "type": "function"
    }
  ],
  "bytecode": "0x608060405234801561001057600080fd5b506120f3806100206000396000f3fe608060405234801561001057600080fd5b50600436106100625760003560e01c806317e2f34a1461006757806325f85cc01461009c5780633a20e9df146100b85780636e6f1cb6146100ed578063ad57226714610109578063ddc1252814610125575b600080fd5b610081600480360381019061007c91906112c8565b610155565b604051610093969594939291906113e8565b60405180910390f35b6100b660048036038101906100b191906114bc565b6103b5565b005b6100d260048036038101906100cd9190611578565b6106ab565b6040516100e4969594939291906115a5565b60405180910390f35b61010760048036038101906101029190611640565b6108bb565b005b610123600480360381019061011e919061170f565b610c56565b005b61013f600480360381019061013a9190611578565b610fe2565b60405161014c91906119ed565b60405180910390f35b6000806000806060808760008082815260200190815260200160002060060160009054906101000a900460ff166101c1576040517f08c379a00000000000000000000000000000000000000000000000000000000081526004016101b890611a5b565b60405180910390fd5b60008060008b8152602001908152602001600020905080600501805490508910610220576040517f08c379a000000000000000000000000000000000000000000000000000000000815260040161021790611ac7565b60405180910390fd5b6000816005018a8154811061023857610237611ae7565b5b906000526020600020906006020190508060000160009054906101000a900473ffffffffffffffffffffffffffffffffffffffff16816001015482600201548360030154846004018560050181805461029090611b45565b80601f01602080910402602001604051908101604052809291908181526020018280546102bc90611b45565b80156103095780601f106102de57610100808354040283529160200191610309565b820191906000526020600020905b8154815290600101906020018083116102ec57829003601f168201915b5050505050915080805461031c90611b45565b80601f016020809104026020016040519081016040528092919081815260200182805461034890611b45565b80156103955780601f1061036a57610100808354040283529160200191610395565b820191906000526020600020905b81548152906001019060200180831161037857829003601f168201915b505050505090509850985098509850985098505050509295509295509295565b8660008082815260200190815260200160002060060160009054906101000a900460ff16610418576040517f08c379a000000000000000000000000000000000000000000000000000000000815260040161040f90611a5b565b60405180910390fd5b60008060008a815260200190815260200160002090508060000160009054906101000a900473ffffffffffffffffffffffffffffffffffffffff1673ffffffffffffffffffffffffffffffffffffffff163373ffffffffffffffffffffffffffffffffffffffff16146104c0576040517f08c379a00000000000000000000000000000000000000000000000000000000081526004016104b790611bc2565b60405180910390fd5b60006040518060c001604052803373ffffffffffffffffffffffffffffffffffffffff1681526020014281526020018a815260200189815260200188888080601f016020809104026020016040519081016040528093929190818152602001838380828437600081840152601f19601f82011690508083019250505050505050815260200186868080601f016020809104026020016040519081016040528093929190818152602001838380828437600081840152601f19601f8201169050808301925050505050505081525090508160050181908060018154018082558091505060019003906000526020600020906006020160009091909190915060008201518160000160006101000a81548173ffffffffffffffffffffffffffffffffffffffff021916908373ffffffffffffffffffffffffffffffffffffffff16021790555060208201518160010155604082015181600201556060820151816003015560808201518160040190816106379190611dbd565b5060a082015181600501908161064d9190611dbd565b5050503373ffffffffffffffffffffffffffffffffffffffff168a7ff898f1c7fd3545adf80b84c67f30f91b77b575134aedf8ae4999d4d107473943426040516106979190611e8f565b60405180910390a350505050505050505050565b6000806060806000808660008082815260200190815260200160002060060160009054906101000a900460ff16610717576040517f08c379a000000000000000000000000000000000000000000000000000000000815260040161070e90611a5b565b60405180910390fd5b60008060008a815260200190815260200160002090508060000160009054906101000a900473ffffffffffffffffffffffffffffffffffffffff168160010160009054906101000a900473ffffffffffffffffffffffffffffffffffffffff1682600201836003018460040154856005018054905083805461079890611b45565b80601f01602080910402602001604051908101604052809291908181526020018280546107c490611b45565b80156108115780601f106107e657610100808354040283529160200191610811565b820191906000526020600020905b8154815290600101906020018083116107f457829003601f168201915b5050505050935082805461082490611b45565b80601f016020809104026020016040519081016040528092919081815260200182805461085090611b45565b801561089d5780601f106108725761010080835404028352916020019161089d565b820191906000526020600020905b81548152906001019060200180831161088057829003601f168201915b50505050509250975097509750975097509750505091939550919395565b8760008082815260200190815260200160002060060160009054906101000a900460ff1661091e576040517f08c379a000000000000000000000000000000000000000000000000000000000815260040161091590611a5b565b60405180910390fd5b60008060008b8152602001908152602001600020905060008160000160009054906101000a900473ffffffffffffffffffffffffffffffffffffffff1690508073ffffffffffffffffffffffffffffffffffffffff163373ffffffffffffffffffffffffffffffffffffffff16146109cb576040517f08c379a00000000000000000000000000000000000000000000000000000000081526004016109c290611ef6565b60405180910390fd5b898260000160006101000a81548173ffffffffffffffffffffffffffffffffffffffff021916908373ffffffffffffffffffffffffffffffffffffffff16021790555060006040518060c001604052803373ffffffffffffffffffffffffffffffffffffffff1681526020014281526020018b81526020018a815260200189898080601f016020809104026020016040519081016040528093929190818152602001838380828437600081840152601f19601f82011690508083019250505050505050815260200187878080601f016020809104026020016040519081016040528093929190818152602001838380828437600081840152601f19601f8201169050808301925050505050505081525090508260050181908060018154018082558091505060019003906000526020600020906006020160009091909190915060008201518160000160006101000a81548173ffffffffffffffffffffffffffffffffffffffff021916908373ffffffffffffffffffffffffffffffffffffffff1602179055506020820151816001015560408201518160020155606082015181600301556080820151816004019081610b859190611dbd565b5060a0820151816005019081610b9b9190611dbd565b5050508a73ffffffffffffffffffffffffffffffffffffffff168273ffffffffffffffffffffffffffffffffffffffff168d7f0b659dccc8eb950324170e8d9598af5ee04ee070883eb28651a96788721fbf8360405160405180910390a43373ffffffffffffffffffffffffffffffffffffffff168c7ff898f1c7fd3545adf80b84c67f30f91b77b575134aedf8ae4999d4d10747394342604051610c409190611e8f565b60405180910390a3505050505050505050505050565b6000808c815260200190815260200160002060060160009054906101000a900460ff1615610cb9576040517f08c379a0000000000000000000000000000000000000000000000000000000008152600401610cb090611f62565b60405180910390fd5b60008060008d8152602001908152602001600020905060018160060160006101000a81548160ff021916908315150217905550338160000160006101000a81548173ffffffffffffffffffffffffffffffffffffffff021916908373ffffffffffffffffffffffffffffffffffffffff160217905550338160010160006101000a81548173ffffffffffffffffffffffffffffffffffffffff021916908373ffffffffffffffffffffffffffffffffffffffff1602179055508a8a826002019182610d85929190611f8d565b508888826003019182610d99929190611f8d565b5042816004018190555060006040518060c001604052803373ffffffffffffffffffffffffffffffffffffffff16815260200142815260200189815260200188815260200187878080601f016020809104026020016040519081016040528093929190818152602001838380828437600081840152601f19601f82011690508083019250505050505050815260200185858080601f016020809104026020016040519081016040528093929190818152602001838380828437600081840152601f19601f8201169050808301925050505050505081525090508160050181908060018154018082558091505060019003906000526020600020906006020160009091909190915060008201518160000160006101000a81548173ffffffffffffffffffffffffffffffffffffffff021916908373ffffffffffffffffffffffffffffffffffffffff1602179055506020820151816001015560408201518160020155606082015181600301556080820151816004019081610f1a9190611dbd565b5060a0820151816005019081610f309190611dbd565b5050503373ffffffffffffffffffffffffffffffffffffffff168d7f05c2d1d93e19562777e5fbbac5efa21ccf5c9198753788ac7a4552e0087bd1d68e8e604051610f7c929190612099565b60405180910390a33373ffffffffffffffffffffffffffffffffffffffff168d7ff898f1c7fd3545adf80b84c67f30f91b77b575134aedf8ae4999d4d10747394342604051610fcb9190611e8f565b60405180910390a350505050505050505050505050565b60608160008082815260200190815260200160002060060160009054906101000a900460ff16611047576040517f08c379a000000000000000000000000000000000000000000000000000000000815260040161103e90611a5b565b60405180910390fd5b600080848152602001908152602001600020600501805480602002602001604051908101604052809291908181526020016000905b8282101561124657838290600052602060002090600602016040518060c00160405290816000820160009054906101000a900473ffffffffffffffffffffffffffffffffffffffff1673ffffffffffffffffffffffffffffffffffffffff1673ffffffffffffffffffffffffffffffffffffffff16815260200160018201548152602001600282015481526020016003820154815260200160048201805461112390611b45565b80601f016020809104026020016040519081016040528092919081815260200182805461114f90611b45565b801561119c5780601f106111715761010080835404028352916020019161119c565b820191906000526020600020905b81548152906001019060200180831161117f57829003601f168201915b505050505081526020016005820180546111b590611b45565b80601f01602080910402602001604051908101604052809291908181526020018280546111e190611b45565b801561122e5780601f106112035761010080835404028352916020019161122e565b820191906000526020600020905b81548152906001019060200180831161121157829003601f168201915b5050505050815250508152602001906001019061107c565b50505050915050919050565b600080fd5b600080fd5b6000819050919050565b61126f8161125c565b811461127a57600080fd5b50565b60008135905061128c81611266565b92915050565b6000819050919050565b6112a581611292565b81146112b057600080fd5b50565b6000813590506112c28161129c565b92915050565b600080604083850312156112df576112de611252565b5b60006112ed8582860161127d565b92505060206112fe858286016112b3565b9150509250929050565b600073ffffffffffffffffffffffffffffffffffffffff82169050919050565b600061133382611308565b9050919050565b61134381611328565b82525050565b61135281611292565b82525050565b600081519050919050565b600082825260208201905092915050565b60005b83811015611392578082015181840152602081019050611377565b60008484015250505050565b6000601f19601f8301169050919050565b60006113ba82611358565b6113c48185611363565b93506113d4818560208601611374565b6113dd8161139e565b840191505092915050565b600060c0820190506113fd600083018961133a565b61140a6020830188611349565b6114176040830187611349565b6114246060830186611349565b818103608083015261143681856113af565b905081810360a083015261144a81846113af565b9050979650505050505050565b600080fd5b600080fd5b600080fd5b60008083601f84011261147c5761147b611457565b5b8235905067ffffffffffffffff8111156114995761149861145c565b5b6020830191508360018202830111156114b5576114b4611461565b5b9250929050565b600080600080600080600060a0888a0312156114db576114da611252565b5b60006114e98a828b0161127d565b97505060206114fa8a828b016112b3565b965050604061150b8a828b016112b3565b955050606088013567ffffffffffffffff81111561152c5761152b611257565b5b6115388a828b01611466565b9450945050608088013567ffffffffffffffff81111561155b5761155a611257565b5b6115678a828b01611466565b925092505092959891949750929550565b60006020828403121561158e5761158d611252565b5b600061159c8482850161127d565b91505092915050565b600060c0820190506115ba600083018961133a565b6115c7602083018861133a565b81810360408301526115d981876113af565b905081810360608301526115ed81866113af565b90506115fc6080830185611349565b61160960a0830184611349565b979650505050505050565b61161d81611328565b811461162857600080fd5b50565b60008135905061163a81611614565b92915050565b60008060008060008060008060c0898b0312156116605761165f611252565b5b600061166e8b828c0161127d565b985050602061167f8b828c0161162b565b97505060406116908b828c016112b3565b96505060606116a18b828c016112b3565b955050608089013567ffffffffffffffff8111156116c2576116c1611257565b5b6116ce8b828c01611466565b945094505060a089013567ffffffffffffffff8111156116f1576116f0611257565b5b6116fd8b828c01611466565b92509250509295985092959890939650565b600080600080600080600080600080600060e08c8e03121561173457611733611252565b5b60006117428e828f0161127d565b9b505060208c013567ffffffffffffffff81111561176357611762611257565b5b61176f8e828f01611466565b9a509a505060408c013567ffffffffffffffff81111561179257611791611257565b5b61179e8e828f01611466565b985098505060606117b18e828f016112b3565b96505060806117c28e828f016112b3565b95505060a08c013567ffffffffffffffff8111156117e3576117e2611257565b5b6117ef8e828f01611466565b945094505060c08c013567ffffffffffffffff81111561181257611811611257565b5b61181e8e828f01611466565b92509250509295989b509295989b9093969950565b600081519050919050565b600082825260208201905092915050565b6000819050602082019050919050565b61186881611328565b82525050565b61187781611292565b82525050565b600082825260208201905092915050565b600061189982611358565b6118a3818561187d565b93506118b3818560208601611374565b6118bc8161139e565b840191505092915050565b600060c0830160008301516118df600086018261185f565b5060208301516118f2602086018261186e565b506040830151611905604086018261186e565b506060830151611918606086018261186e565b5060808301518482036080860152611930828261188e565b91505060a083015184820360a086015261194a828261188e565b9150508091505092915050565b600061196383836118c7565b905092915050565b6000602082019050919050565b600061198382611833565b61198d818561183e565b93508360208202850161199f8561184f565b8060005b858110156119db57848403895281516119bc8582611957565b94506119c78361196b565b925060208a019950506001810190506119a3565b50829750879550505050505092915050565b60006020820190508181036000830152611a078184611978565b905092915050565b7f50726f64756374206e6f7420666f756e64000000000000000000000000000000600082015250565b6000611a45601183611363565b9150611a5082611a0f565b602082019050919050565b60006020820190508181036000830152611a7481611a38565b9050919050565b7f496e646578206f7574206f6620626f756e647300000000000000000000000000600082015250565b6000611ab1601383611363565b9150611abc82611a7b565b602082019050919050565b60006020820190508181036000830152611ae081611aa4565b9050919050565b7f4e487b7100000000000000000000000000000000000000000000000000000000600052603260045260246000fd5b7f4e487b7100000000000000000000000000000000000000000000000000000000600052602260045260246000fd5b60006002820490506001821680611b5d57607f821691505b602082108103611b7057611b6f611b16565b5b50919050565b7f4f6e6c79206f776e65722063616e206164642074726163650000000000000000600082015250565b6000611bac601883611363565b9150611bb782611b76565b602082019050919050565b60006020820190508181036000830152611bdb81611b9f565b9050919050565b7f4e487b7100000000000000000000000000000000000000000000000000000000600052604160045260246000fd5b60008190508160005260206000209050919050565b60006020601f8301049050919050565b600082821b905092915050565b600060088302611c737fffffffffffffffffffffffffffffffffffffffffffffffffffffffffffffffff82611c36565b611c7d8683611c36565b95508019841693508086168417925050509392505050565b6000819050919050565b6000611cba611cb5611cb084611292565b611c95565b611292565b9050919050565b6000819050919050565b611cd483611c9f565b611ce8611ce082611cc1565b848454611c43565b825550505050565b600090565b611cfd611cf0565b611d08818484611ccb565b505050565b5b81811015611d2c57611d21600082611cf5565b600181019050611d0e565b5050565b601f821115611d7157611d4281611c11565b611d4b84611c26565b81016020851015611d5a578190505b611d6e611d6685611c26565b830182611d0d565b50505b505050565b600082821c905092915050565b6000611d9460001984600802611d76565b1980831691505092915050565b6000611dad8383611d83565b9150826002028217905092915050565b611dc682611358565b67ffffffffffffffff811115611ddf57611dde611be2565b5b611de98254611b45565b611df4828285611d30565b600060209050601f831160018114611e275760008415611e15578287015190505b611e1f8582611da1565b865550611e87565b601f198416611e3586611c11565b60005b82811015611e5d57848901518255600182019150602085019450602081019050611e38565b86831015611e7a5784890151611e76601f891682611d83565b8355505b6001600288020188555050505b505050505050565b6000602082019050611ea46000830184611349565b92915050565b7f4f6e6c79206f776e65722063616e207472616e73666572000000000000000000600082015250565b6000611ee0601783611363565b9150611eeb82611eaa565b602082019050919050565b60006020820190508181036000830152611f0f81611ed3565b9050919050565b7f50726f6475637420616c72656164792065786973747300000000000000000000600082015250565b6000611f4c601683611363565b9150611f5782611f16565b602082019050919050565b60006020820190508181036000830152611f7b81611f3f565b9050919050565b600082905092915050565b611f978383611f82565b67ffffffffffffffff811115611fb057611faf611be2565b5b611fba8254611b45565b611fc5828285611d30565b6000601f831160018114611ff45760008415611fe2578287013590505b611fec8582611da1565b865550612054565b601f19841661200286611c11565b60005b8281101561202a57848901358255600182019150602085019450602081019050612005565b868310156120475784890135612043601f891682611d83565b8355505b6001600288020188555050505b50505050505050565b82818337600083830152505050565b60006120788385611363565b935061208583858461205d565b61208e8361139e565b840190509392505050565b600060208201905081810360008301526120b481848661206c565b9050939250505056fea26469706673582212205380da1058c50604465666c2f28204eb14a3015f6d1efd46c0ea82fc044dace064736f6c63430008140033",
  "linkReferences": {},
  "deployedLinkReferences": {}
}